{
  "_format": "hh-sol-artifact-1",
  "contractName": "ERC721Passes",
  "sourceName": "contracts/nft.sol",
  "abi": [
    {
      "inputs": [
        {
          "internalType": "string",
          "name": "name_",
          "type": "string"
        },
        {
          "internalType": "string",
          "name": "symbol_",
          "type": "string"
        }
      ],
      "stateMutability": "nonpayable",
      "type": "constructor"
    },
    {
      "anonymous": false,
      "inputs": [
        {
          "indexed": true,
          "internalType": "address",
          "name": "owner",
          "type": "address"
        },
        {
          "indexed": true,
          "internalType": "address",
          "name": "approved",
          "type": "address"
        },
        {
          "indexed": true,
          "internalType": "uint256",
          "name": "tokenId",
          "type": "uint256"
        }
      ],
      "name": "Approval",
      "type": "event"
    },
    {
      "anonymous": false,
      "inputs": [
        {
          "indexed": true,
          "internalType": "address",
          "name": "owner",
          "type": "address"
        },
        {
          "indexed": true,
          "internalType": "address",
          "name": "operator",
          "type": "address"
        },
        {
          "indexed": false,
          "internalType": "bool",
          "name": "approved",
          "type": "bool"
        }
      ],
      "name": "ApprovalForAll",
      "type": "event"
    },
    {
      "anonymous": false,
      "inputs": [
        {
          "indexed": true,
          "internalType": "address",
          "name": "from",
          "type": "address"
        },
        {
          "indexed": true,
          "internalType": "address",
          "name": "to",
          "type": "address"
        },
        {
          "indexed": true,
          "internalType": "uint256",
          "name": "tokenId",
          "type": "uint256"
        }
      ],
      "name": "Transfer",
      "type": "event"
    },
    {
      "inputs": [
        {
          "internalType": "address",
          "name": "to",
          "type": "address"
        },
        {
          "internalType": "uint256",
          "name": "tokenId",
          "type": "uint256"
        }
      ],
      "name": "approve",
      "outputs": [],
      "stateMutability": "nonpayable",
      "type": "function"
    },
    {
      "inputs": [
        {
          "internalType": "address",
          "name": "owner",
          "type": "address"
        }
      ],
      "name": "balanceOf",
      "outputs": [
        {
          "internalType": "uint256",
          "name": "",
          "type": "uint256"
        }
      ],
      "stateMutability": "view",
      "type": "function"
    },
    {
      "inputs": [
        {
          "internalType": "uint256",
          "name": "tokenId",
          "type": "uint256"
        }
      ],
      "name": "getApproved",
      "outputs": [
        {
          "internalType": "address",
          "name": "",
          "type": "address"
        }
      ],
      "stateMutability": "view",
      "type": "function"
    },
    {
      "inputs": [
        {
          "internalType": "address",
          "name": "owner",
          "type": "address"
        },
        {
          "internalType": "address",
          "name": "operator",
          "type": "address"
        }
      ],
      "name": "isApprovedForAll",
      "outputs": [
        {
          "internalType": "bool",
          "name": "",
          "type": "bool"
        }
      ],
      "stateMutability": "view",
      "type": "function"
    },
    {
      "inputs": [],
      "name": "name",
      "outputs": [
        {
          "internalType": "string",
          "name": "",
          "type": "string"
        }
      ],
      "stateMutability": "view",
      "type": "function"
    },
    {
      "inputs": [
        {
          "internalType": "uint256",
          "name": "tokenId",
          "type": "uint256"
        }
      ],
      "name": "ownerOf",
      "outputs": [
        {
          "internalType": "address",
          "name": "",
          "type": "address"
        }
      ],
      "stateMutability": "view",
      "type": "function"
    },
    {
      "inputs": [
        {
          "internalType": "uint256",
          "name": "_tokenId",
          "type": "uint256"
        },
        {
          "internalType": "uint256",
          "name": "_salePrice",
          "type": "uint256"
        }
      ],
      "name": "royaltyInfo",
      "outputs": [
        {
          "internalType": "address",
          "name": "",
          "type": "address"
        },
        {
          "internalType": "uint256",
          "name": "",
          "type": "uint256"
        }
      ],
      "stateMutability": "view",
      "type": "function"
    },
    {
      "inputs": [
        {
          "internalType": "address",
          "name": "from",
          "type": "address"
        },
        {
          "internalType": "address",
          "name": "to",
          "type": "address"
        },
        {
          "internalType": "uint256",
          "name": "tokenId",
          "type": "uint256"
        }
      ],
      "name": "safeTransferFrom",
      "outputs": [],
      "stateMutability": "nonpayable",
      "type": "function"
    },
    {
      "inputs": [
        {
          "internalType": "address",
          "name": "from",
          "type": "address"
        },
        {
          "internalType": "address",
          "name": "to",
          "type": "address"
        },
        {
          "internalType": "uint256",
          "name": "tokenId",
          "type": "uint256"
        },
        {
          "internalType": "bytes",
          "name": "data",
          "type": "bytes"
        }
      ],
      "name": "safeTransferFrom",
      "outputs": [],
      "stateMutability": "nonpayable",
      "type": "function"
    },
    {
      "inputs": [
        {
          "internalType": "address",
          "name": "operator",
          "type": "address"
        },
        {
          "internalType": "bool",
          "name": "approved",
          "type": "bool"
        }
      ],
      "name": "setApprovalForAll",
      "outputs": [],
      "stateMutability": "nonpayable",
      "type": "function"
    },
    {
      "inputs": [
        {
          "internalType": "bytes4",
          "name": "interfaceId",
          "type": "bytes4"
        }
      ],
      "name": "supportsInterface",
      "outputs": [
        {
          "internalType": "bool",
          "name": "",
          "type": "bool"
        }
      ],
      "stateMutability": "view",
      "type": "function"
    },
    {
      "inputs": [],
      "name": "symbol",
      "outputs": [
        {
          "internalType": "string",
          "name": "",
          "type": "string"
        }
      ],
      "stateMutability": "view",
      "type": "function"
    },
    {
      "inputs": [
        {
          "internalType": "uint256",
          "name": "tokenId",
          "type": "uint256"
        }
      ],
      "name": "tokenURI",
      "outputs": [
        {
          "internalType": "string",
          "name": "",
          "type": "string"
        }
      ],
      "stateMutability": "view",
      "type": "function"
    },
    {
      "inputs": [
        {
          "internalType": "address",
          "name": "from",
          "type": "address"
        },
        {
          "internalType": "address",
          "name": "to",
          "type": "address"
        },
        {
          "internalType": "uint256",
          "name": "tokenId",
          "type": "uint256"
        }
      ],
      "name": "transferFrom",
      "outputs": [],
      "stateMutability": "nonpayable",
      "type": "function"
    }
  ],
  "bytecode": "0x60806040523480156200001157600080fd5b5060405162001a5738038062001a57833981016040819052620000349162000123565b818160026200004483826200021c565b5060036200005382826200021c565b5050505050620002e8565b634e487b7160e01b600052604160045260246000fd5b600082601f8301126200008657600080fd5b81516001600160401b0380821115620000a357620000a36200005e565b604051601f8301601f19908116603f01168101908282118183101715620000ce57620000ce6200005e565b81604052838152602092508683858801011115620000eb57600080fd5b600091505b838210156200010f5785820183015181830184015290820190620000f0565b600093810190920192909252949350505050565b600080604083850312156200013757600080fd5b82516001600160401b03808211156200014f57600080fd5b6200015d8683870162000074565b935060208501519150808211156200017457600080fd5b50620001838582860162000074565b9150509250929050565b600181811c90821680620001a257607f821691505b602082108103620001c357634e487b7160e01b600052602260045260246000fd5b50919050565b601f8211156200021757600081815260208120601f850160051c81016020861015620001f25750805b601f850160051c820191505b818110156200021357828155600101620001fe565b5050505b505050565b81516001600160401b038111156200023857620002386200005e565b62000250816200024984546200018d565b84620001c9565b602080601f8311600181146200028857600084156200026f5750858301515b600019600386901b1c1916600185901b17855562000213565b600085815260208120601f198616915b82811015620002b95788860151825594840194600190910190840162000298565b5085821015620002d85787850151600019600388901b60f8161c191681555b5050505050600190811b01905550565b61175f80620002f86000396000f3fe608060405234801561001057600080fd5b50600436106100ea5760003560e01c80636352211e1161008c578063a22cb46511610066578063a22cb46514610200578063b88d4fde14610213578063c87b56dd14610226578063e985e9c51461023957600080fd5b80636352211e146101c457806370a08231146101d757806395d89b41146101f857600080fd5b8063095ea7b3116100c8578063095ea7b31461015757806323b872dd1461016c5780632a55205a1461017f57806342842e0e146101b157600080fd5b806301ffc9a7146100ef57806306fdde0314610117578063081812fc1461012c575b600080fd5b6101026100fd366004611252565b610275565b60405190151581526020015b60405180910390f35b61011f610286565b60405161010e91906112bf565b61013f61013a3660046112d2565b610318565b6040516001600160a01b03909116815260200161010e565b61016a610165366004611307565b61033f565b005b61016a61017a366004611331565b610493565b61019261018d36600461136d565b61051a565b604080516001600160a01b03909316835260208301919091520161010e565b61016a6101bf366004611331565b6105f7565b61013f6101d23660046112d2565b610612565b6101ea6101e536600461138f565b610677565b60405190815260200161010e565b61011f610711565b61016a61020e3660046113aa565b610720565b61016a610221366004611415565b61072f565b61011f6102343660046112d2565b6107bd565b6101026102473660046114f1565b6001600160a01b03918216600090815260076020908152604080832093909416825291909152205460ff1690565b6000610280826107c8565b92915050565b60606002805461029590611524565b80601f01602080910402602001604051908101604052809291908181526020018280546102c190611524565b801561030e5780601f106102e35761010080835404028352916020019161030e565b820191906000526020600020905b8154815290600101906020018083116102f157829003601f168201915b5050505050905090565b6000610323826107d3565b506000908152600660205260409020546001600160a01b031690565b600061034a82610612565b9050806001600160a01b0316836001600160a01b0316036103d85760405162461bcd60e51b815260206004820152602160248201527f4552433732313a20617070726f76616c20746f2063757272656e74206f776e6560448201527f720000000000000000000000000000000000000000000000000000000000000060648201526084015b60405180910390fd5b336001600160a01b038216148061041257506001600160a01b038116600090815260076020908152604080832033845290915290205460ff165b6104845760405162461bcd60e51b815260206004820152603e60248201527f4552433732313a20617070726f76652063616c6c6572206973206e6f7420746f60448201527f6b656e206f776e6572206e6f7220617070726f76656420666f7220616c6c000060648201526084016103cf565b61048e838361083a565b505050565b61049d33826108c0565b61050f5760405162461bcd60e51b815260206004820152602e60248201527f4552433732313a2063616c6c6572206973206e6f7420746f6b656e206f776e6560448201527f72206e6f7220617070726f76656400000000000000000000000000000000000060648201526084016103cf565b61048e83838361093f565b60008281526001602090815260408083208151808301909252546001600160a01b038116808352740100000000000000000000000000000000000000009091046bffffffffffffffffffffffff169282019290925282916105bb5750604080518082019091526000546001600160a01b03811682527401000000000000000000000000000000000000000090046bffffffffffffffffffffffff1660208201525b6020810151600090612710906105df906bffffffffffffffffffffffff16876115a6565b6105e991906115ec565b915196919550909350505050565b61048e8383836040518060200160405280600081525061072f565b6000818152600460205260408120546001600160a01b0316806102805760405162461bcd60e51b815260206004820152601860248201527f4552433732313a20696e76616c696420746f6b656e204944000000000000000060448201526064016103cf565b60006001600160a01b0382166106f55760405162461bcd60e51b815260206004820152602960248201527f4552433732313a2061646472657373207a65726f206973206e6f74206120766160448201527f6c6964206f776e6572000000000000000000000000000000000000000000000060648201526084016103cf565b506001600160a01b031660009081526005602052604090205490565b60606003805461029590611524565b61072b338383610b24565b5050565b61073933836108c0565b6107ab5760405162461bcd60e51b815260206004820152602e60248201527f4552433732313a2063616c6c6572206973206e6f7420746f6b656e206f776e6560448201527f72206e6f7220617070726f76656400000000000000000000000000000000000060648201526084016103cf565b6107b784848484610c10565b50505050565b606061028082610c99565b600061028082610da1565b6000818152600460205260409020546001600160a01b03166108375760405162461bcd60e51b815260206004820152601860248201527f4552433732313a20696e76616c696420746f6b656e204944000000000000000060448201526064016103cf565b50565b600081815260066020526040902080547fffffffffffffffffffffffff0000000000000000000000000000000000000000166001600160a01b038416908117909155819061088782610612565b6001600160a01b03167f8c5be1e5ebec7d5bd14f71427d1e84f3dd0314c0f7b2291e5b200ac8c7c3b92560405160405180910390a45050565b6000806108cc83610612565b9050806001600160a01b0316846001600160a01b0316148061091357506001600160a01b0380821660009081526007602090815260408083209388168352929052205460ff165b806109375750836001600160a01b031661092c84610318565b6001600160a01b0316145b949350505050565b826001600160a01b031661095282610612565b6001600160a01b0316146109ce5760405162461bcd60e51b815260206004820152602560248201527f4552433732313a207472616e736665722066726f6d20696e636f72726563742060448201527f6f776e657200000000000000000000000000000000000000000000000000000060648201526084016103cf565b6001600160a01b038216610a495760405162461bcd60e51b8152602060048201526024808201527f4552433732313a207472616e7366657220746f20746865207a65726f2061646460448201527f726573730000000000000000000000000000000000000000000000000000000060648201526084016103cf565b610a5460008261083a565b6001600160a01b0383166000908152600560205260408120805460019290610a7d908490611600565b90915550506001600160a01b0382166000908152600560205260408120805460019290610aab908490611613565b909155505060008181526004602052604080822080547fffffffffffffffffffffffff0000000000000000000000000000000000000000166001600160a01b0386811691821790925591518493918716917fddf252ad1be2c89b69c2b068fc378daa952ba7f163c4a11628f55a4df523b3ef91a4505050565b816001600160a01b0316836001600160a01b031603610b855760405162461bcd60e51b815260206004820152601960248201527f4552433732313a20617070726f766520746f2063616c6c65720000000000000060448201526064016103cf565b6001600160a01b0383811660008181526007602090815260408083209487168084529482529182902080547fffffffffffffffffffffffffffffffffffffffffffffffffffffffffffffff001686151590811790915591519182527f17307eab39ab6107e8899845ad3d59bd9653f200f220920489ca2b5937696c31910160405180910390a3505050565b610c1b84848461093f565b610c2784848484610e43565b6107b75760405162461bcd60e51b815260206004820152603260248201527f4552433732313a207472616e7366657220746f206e6f6e20455243373231526560448201527f63656976657220696d706c656d656e746572000000000000000000000000000060648201526084016103cf565b6060610ca4826107d3565b60008281526008602052604081208054610cbd90611524565b80601f0160208091040260200160405190810160405280929190818152602001828054610ce990611524565b8015610d365780601f10610d0b57610100808354040283529160200191610d36565b820191906000526020600020905b815481529060010190602001808311610d1957829003601f168201915b505050505090506000610d5460408051602081019091526000815290565b90508051600003610d66575092915050565b815115610d98578082604051602001610d80929190611626565b60405160208183030381529060405292505050919050565b61093784610fe4565b60007fffffffff0000000000000000000000000000000000000000000000000000000082167f80ac58cd000000000000000000000000000000000000000000000000000000001480610e3457507fffffffff0000000000000000000000000000000000000000000000000000000082167f5b5e139f00000000000000000000000000000000000000000000000000000000145b80610280575061028082611058565b60006001600160a01b0384163b15610fd9576040517f150b7a020000000000000000000000000000000000000000000000000000000081526001600160a01b0385169063150b7a0290610ea0903390899088908890600401611655565b6020604051808303816000875af1925050508015610edb575060408051601f3d908101601f19168201909252610ed891810190611691565b60015b610f8e573d808015610f09576040519150601f19603f3d011682016040523d82523d6000602084013e610f0e565b606091505b508051600003610f865760405162461bcd60e51b815260206004820152603260248201527f4552433732313a207472616e7366657220746f206e6f6e20455243373231526560448201527f63656976657220696d706c656d656e746572000000000000000000000000000060648201526084016103cf565b805181602001fd5b7fffffffff00000000000000000000000000000000000000000000000000000000167f150b7a0200000000000000000000000000000000000000000000000000000000149050610937565b506001949350505050565b6060610fef826107d3565b600061100660408051602081019091526000815290565b905060008151116110265760405180602001604052806000815250611051565b80611030846110ef565b604051602001611041929190611626565b6040516020818303038152906040525b9392505050565b60007fffffffff0000000000000000000000000000000000000000000000000000000082167f2a55205a00000000000000000000000000000000000000000000000000000000148061028057507f01ffc9a7000000000000000000000000000000000000000000000000000000007fffffffff00000000000000000000000000000000000000000000000000000000831614610280565b60608160000361113257505060408051808201909152600181527f3000000000000000000000000000000000000000000000000000000000000000602082015290565b8160005b811561115c5780611146816116ae565b91506111559050600a836115ec565b9150611136565b60008167ffffffffffffffff811115611177576111776113e6565b6040519080825280601f01601f1916602001820160405280156111a1576020820181803683370190505b5090505b8415610937576111b6600183611600565b91506111c3600a866116e6565b6111ce906030611613565b60f81b8183815181106111e3576111e36116fa565b60200101907effffffffffffffffffffffffffffffffffffffffffffffffffffffffffffff1916908160001a90535061121d600a866115ec565b94506111a5565b7fffffffff000000000000000000000000000000000000000000000000000000008116811461083757600080fd5b60006020828403121561126457600080fd5b813561105181611224565b60005b8381101561128a578181015183820152602001611272565b50506000910152565b600081518084526112ab81602086016020860161126f565b601f01601f19169290920160200192915050565b6020815260006110516020830184611293565b6000602082840312156112e457600080fd5b5035919050565b80356001600160a01b038116811461130257600080fd5b919050565b6000806040838503121561131a57600080fd5b611323836112eb565b946020939093013593505050565b60008060006060848603121561134657600080fd5b61134f846112eb565b925061135d602085016112eb565b9150604084013590509250925092565b6000806040838503121561138057600080fd5b50508035926020909101359150565b6000602082840312156113a157600080fd5b611051826112eb565b600080604083850312156113bd57600080fd5b6113c6836112eb565b9150602083013580151581146113db57600080fd5b809150509250929050565b7f4e487b7100000000000000000000000000000000000000000000000000000000600052604160045260246000fd5b6000806000806080858703121561142b57600080fd5b611434856112eb565b9350611442602086016112eb565b925060408501359150606085013567ffffffffffffffff8082111561146657600080fd5b818701915087601f83011261147a57600080fd5b81358181111561148c5761148c6113e6565b604051601f8201601f19908116603f011681019083821181831017156114b4576114b46113e6565b816040528281528a60208487010111156114cd57600080fd5b82602086016020830137600060208483010152809550505050505092959194509250565b6000806040838503121561150457600080fd5b61150d836112eb565b915061151b602084016112eb565b90509250929050565b600181811c9082168061153857607f821691505b602082108103611571577f4e487b7100000000000000000000000000000000000000000000000000000000600052602260045260246000fd5b50919050565b7f4e487b7100000000000000000000000000000000000000000000000000000000600052601160045260246000fd5b808202811582820484141761028057610280611577565b7f4e487b7100000000000000000000000000000000000000000000000000000000600052601260045260246000fd5b6000826115fb576115fb6115bd565b500490565b8181038181111561028057610280611577565b8082018082111561028057610280611577565b6000835161163881846020880161126f565b83519083019061164c81836020880161126f565b01949350505050565b60006001600160a01b038087168352808616602084015250836040830152608060608301526116876080830184611293565b9695505050505050565b6000602082840312156116a357600080fd5b815161105181611224565b60007fffffffffffffffffffffffffffffffffffffffffffffffffffffffffffffffff82036116df576116df611577565b5060010190565b6000826116f5576116f56115bd565b500690565b7f4e487b7100000000000000000000000000000000000000000000000000000000600052603260045260246000fdfea2646970667358221220231e4ca6e10eabe1334d20daf2516d39eb05d9db12edb9a0f22591c5166ead7e64736f6c63430008110033",
  "linkReferences": {},
  "deployedLinkReferences": {}
}